{
  "contractName": "LogicV1",
  "abi": [
    {
      "anonymous": false,
      "inputs": [
        {
          "indexed": false,
          "internalType": "uint8",
          "name": "version",
          "type": "uint8"
        }
      ],
      "name": "Initialized",
      "type": "event"
    },
    {
      "inputs": [],
      "name": "value",
      "outputs": [
        {
          "internalType": "uint256",
          "name": "",
          "type": "uint256"
        }
      ],
      "stateMutability": "view",
      "type": "function"
    },
    {
      "inputs": [
        {
          "internalType": "uint256",
          "name": "_value",
          "type": "uint256"
        }
      ],
      "name": "initialize",
      "outputs": [],
      "stateMutability": "nonpayable",
      "type": "function"
    },
    {
      "inputs": [
        {
          "internalType": "uint256",
          "name": "_value",
          "type": "uint256"
        },
        {
          "internalType": "uint256",
          "name": "num",
          "type": "uint256"
        }
      ],
      "name": "setValue",
      "outputs": [
        {
          "internalType": "uint256",
          "name": "",
          "type": "uint256"
        }
      ],
      "stateMutability": "nonpayable",
      "type": "function"
    }
  ],
  "bytecode": "0x608060405234801561001057600080fd5b506104d3806100206000396000f3fe608060405234801561001057600080fd5b50600436106100415760003560e01c80633fa4f245146100465780637b8d56e314610064578063fe4b84df14610094575b600080fd5b61004e6100b0565b60405161005b919061024f565b60405180910390f35b61007e6004803603810190610079919061029b565b6100b6565b60405161008b919061024f565b60405180910390f35b6100ae60048036038101906100a991906102db565b6100d5565b005b60015481565b600081836100c49190610337565b600181905550600154905092915050565b60008060019054906101000a900460ff161590508080156101065750600160008054906101000a900460ff1660ff16105b80610133575061011530610213565b1580156101325750600160008054906101000a900460ff1660ff16145b5b610172576040517f08c379a000000000000000000000000000000000000000000000000000000000815260040161016990610410565b60405180910390fd5b60016000806101000a81548160ff021916908360ff16021790555080156101af576001600060016101000a81548160ff0219169083151502179055505b81600181905550801561020f5760008060016101000a81548160ff0219169083151502179055507f7f26b83ff96e1f2b6a682f133852f6798a09c465da95921460cefb384740249860016040516102069190610482565b60405180910390a15b5050565b6000808273ffffffffffffffffffffffffffffffffffffffff163b119050919050565b6000819050919050565b61024981610236565b82525050565b60006020820190506102646000830184610240565b92915050565b600080fd5b61027881610236565b811461028357600080fd5b50565b6000813590506102958161026f565b92915050565b600080604083850312156102b2576102b161026a565b5b60006102c085828601610286565b92505060206102d185828601610286565b9150509250929050565b6000602082840312156102f1576102f061026a565b5b60006102ff84828501610286565b91505092915050565b7f4e487b7100000000000000000000000000000000000000000000000000000000600052601160045260246000fd5b600061034282610236565b915061034d83610236565b9250827fffffffffffffffffffffffffffffffffffffffffffffffffffffffffffffffff0382111561038257610381610308565b5b828201905092915050565b600082825260208201905092915050565b7f496e697469616c697a61626c653a20636f6e747261637420697320616c72656160008201527f647920696e697469616c697a6564000000000000000000000000000000000000602082015250565b60006103fa602e8361038d565b91506104058261039e565b604082019050919050565b60006020820190508181036000830152610429816103ed565b9050919050565b6000819050919050565b600060ff82169050919050565b6000819050919050565b600061046c61046761046284610430565b610447565b61043a565b9050919050565b61047c81610451565b82525050565b60006020820190506104976000830184610473565b9291505056fea26469706673582212201e03d0dabdfd8a96ae7a24cadbc67aea22fdbf884ccd9709f1d17117ef8b2af764736f6c634300080b0033",
  "immutableReferences": {},
  "source": "// SPDX-License-Identifier: MIT\npragma solidity >=0.4.22 <0.9.0;\n\n// \nimport \"@openzeppelin/contracts-upgradeable/proxy/utils/Initializable.sol\";\nimport \"./interfaces/ILogic.sol\";\n\n/**\n * LogicV1\n * \n */\ncontract LogicV1 is Initializable, ILogic {\n  \n  // \n  uint256 public value;\n\n  /**\n   * \n   * @param _value \n   */\n  function initialize(uint256 _value) public override initializer {\n    value = _value;\n  }\n\n  /**\n   * valuesetter\n   * @param _value \n   * @param num \n   */\n  function setValue(uint256 _value, uint256 num) \n    public\n    override\n    returns (uint256) \n  {\n    // value\n    value = _value + num;\n    return value;\n  }\n}",
  "sourcePath": "/Users/harukikondo/git/ProxyContract/contracts/LogcV1.sol",
  "compiler": {
    "name": "solc",
    "version": "0.8.11+commit.d7f03943.Emscripten.clang"
  },
  "schemaVersion": "3.4.4",
  "updatedAt": "2022-07-13T01:56:29.095Z",
  "devdoc": {
    "kind": "dev",
    "methods": {
      "initialize(uint256)": {
        "params": {
          "_value": ""
        }
      },
      "setValue(uint256,uint256)": {
        "params": {
          "_value": "",
          "num": ""
        }
      }
    },
    "version": 1
  },
  "userdoc": {
    "kind": "user",
    "methods": {
      "initialize(uint256)": {
        "notice": ""
      },
      "setValue(uint256,uint256)": {
        "notice": "valuesetter"
      }
    },
    "notice": "LogicV1 ",
    "version": 1
  }
}