{
  "contractName": "LogicV2",
  "abi": [
    {
      "anonymous": false,
      "inputs": [
        {
          "indexed": false,
          "internalType": "uint8",
          "name": "version",
          "type": "uint8"
        }
      ],
      "name": "Initialized",
      "type": "event"
    },
    {
      "inputs": [],
      "name": "value",
      "outputs": [
        {
          "internalType": "uint256",
          "name": "",
          "type": "uint256"
        }
      ],
      "stateMutability": "view",
      "type": "function"
    },
    {
      "inputs": [
        {
          "internalType": "uint256",
          "name": "_value",
          "type": "uint256"
        }
      ],
      "name": "initialize",
      "outputs": [],
      "stateMutability": "nonpayable",
      "type": "function"
    },
    {
      "inputs": [
        {
          "internalType": "uint256",
          "name": "_value",
          "type": "uint256"
        },
        {
          "internalType": "uint256",
          "name": "num",
          "type": "uint256"
        }
      ],
      "name": "setValue",
      "outputs": [
        {
          "internalType": "uint256",
          "name": "",
          "type": "uint256"
        }
      ],
      "stateMutability": "nonpayable",
      "type": "function"
    }
  ],
  "bytecode": "0x608060405234801561001057600080fd5b50610539806100206000396000f3fe608060405234801561001057600080fd5b50600436106100415760003560e01c80633fa4f245146100465780637b8d56e314610064578063fe4b84df14610094575b600080fd5b61004e6100b0565b60405161005b919061025b565b60405180910390f35b61007e600480360381019061007991906102a7565b6100b6565b60405161008b919061025b565b60405180910390f35b6100ae60048036038101906100a991906102e7565b6100e1565b005b60015481565b6000818360026100c69190610343565b6100d0919061039d565b600181905550600154905092915050565b60008060019054906101000a900460ff161590508080156101125750600160008054906101000a900460ff1660ff16105b8061013f57506101213061021f565b15801561013e5750600160008054906101000a900460ff1660ff16145b5b61017e576040517f08c379a000000000000000000000000000000000000000000000000000000000815260040161017590610476565b60405180910390fd5b60016000806101000a81548160ff021916908360ff16021790555080156101bb576001600060016101000a81548160ff0219169083151502179055505b81600181905550801561021b5760008060016101000a81548160ff0219169083151502179055507f7f26b83ff96e1f2b6a682f133852f6798a09c465da95921460cefb3847402498600160405161021291906104e8565b60405180910390a15b5050565b6000808273ffffffffffffffffffffffffffffffffffffffff163b119050919050565b6000819050919050565b61025581610242565b82525050565b6000602082019050610270600083018461024c565b92915050565b600080fd5b61028481610242565b811461028f57600080fd5b50565b6000813590506102a18161027b565b92915050565b600080604083850312156102be576102bd610276565b5b60006102cc85828601610292565b92505060206102dd85828601610292565b9150509250929050565b6000602082840312156102fd576102fc610276565b5b600061030b84828501610292565b91505092915050565b7f4e487b7100000000000000000000000000000000000000000000000000000000600052601160045260246000fd5b600061034e82610242565b915061035983610242565b9250817fffffffffffffffffffffffffffffffffffffffffffffffffffffffffffffffff048311821515161561039257610391610314565b5b828202905092915050565b60006103a882610242565b91506103b383610242565b9250827fffffffffffffffffffffffffffffffffffffffffffffffffffffffffffffffff038211156103e8576103e7610314565b5b828201905092915050565b600082825260208201905092915050565b7f496e697469616c697a61626c653a20636f6e747261637420697320616c72656160008201527f647920696e697469616c697a6564000000000000000000000000000000000000602082015250565b6000610460602e836103f3565b915061046b82610404565b604082019050919050565b6000602082019050818103600083015261048f81610453565b9050919050565b6000819050919050565b600060ff82169050919050565b6000819050919050565b60006104d26104cd6104c884610496565b6104ad565b6104a0565b9050919050565b6104e2816104b7565b82525050565b60006020820190506104fd60008301846104d9565b9291505056fea2646970667358221220f5935939df317416c326ee0b933affed0eb46d29f6e46890eba3ff2b12a1b03564736f6c634300080b0033",
  "immutableReferences": {},
  "source": "// SPDX-License-Identifier: MIT\npragma solidity >=0.4.22 <0.9.0;\n\n// \nimport \"@openzeppelin/contracts-upgradeable/proxy/utils/Initializable.sol\";\nimport \"./interfaces/ILogic.sol\";\n\n/**\n * LogicV2\n * \n */\ncontract LogicV2 is Initializable, ILogic {\n\n  // \n  uint256 public value;\n\n  /**\n   * \n   * @param _value \n   */\n  function initialize(uint256 _value)\n    public\n    override\n    initializer\n  {\n      value = _value;\n  }\n\n  /**\n   * valuesetter\n   * @param _value \n   * @param num \n   */\n  function setValue(uint256 _value, uint256 num) \n    public\n    override\n    returns (uint256)\n  {\n    // value\n    value = 2 * _value + num;\n    return value;\n  }\n\n}\n",
  "sourcePath": "/Users/harukikondo/git/ProxyContract/contracts/LogcV2.sol",
  "compiler": {
    "name": "solc",
    "version": "0.8.11+commit.d7f03943.Emscripten.clang"
  },
  "schemaVersion": "3.4.4",
  "updatedAt": "2022-07-13T01:56:29.100Z",
  "devdoc": {
    "kind": "dev",
    "methods": {
      "initialize(uint256)": {
        "params": {
          "_value": ""
        }
      },
      "setValue(uint256,uint256)": {
        "params": {
          "_value": "",
          "num": ""
        }
      }
    },
    "version": 1
  },
  "userdoc": {
    "kind": "user",
    "methods": {
      "initialize(uint256)": {
        "notice": ""
      },
      "setValue(uint256,uint256)": {
        "notice": "valuesetter"
      }
    },
    "notice": "LogicV2 ",
    "version": 1
  }
}